00008496D20191126VBANCO                                                                                                                                                                                                                                                                                                                                       
03710000000001529683602   001100303000300030235532330000000339746832019111500000000020000                                            0                                                                                                                                                                                                                        
03710000000001529683602   001100303000300030235532330000000340777072019111400000000010000                                            0                                                                                                                                                                                                                        
03710000000001529683602   001100303000300030235532330000000339982832019110800000000010000                                            0                                                                                                                                                                                                                        
03710000000001529588399   001103708000300370121834150000000337145472019103100000000040000                                            0                                                                                                                                                                                                                        
03710000000001529459169   001103760000300376893387470000000339075212019110400000000020000                                            0                                                                                                                                                                                                                        
03710000000001529422334   001104329000300432219785970000000339770162019112100000000020000                                            0                                                                                                                                                                                                                        
03710000000001529422334   001104329000300432219785970000000341205092019112100000000010000                                            0                                                                                                                                                                                                                        
03710000000001529422334   001104329000300432219785970000000338927872019110100000000015000                                            0                                                                                                                                                                                                                        
03710000000001528136046   001105605000300560097078010000000337779302019103100000000027700                                            0                                                                                                                                                                                                                        
03710000000001529462431   001400403000035118095895600000000338883742019111100000000008900                                            0                                                                                                                                                                                                                        
03710000000001529462431   001400403000035118095895600000000338321792019110500000000009900                                            0                                                                                                                                                                                                                        
03710000000001529462431   001400403000035118095895600000000338321522019110500000000019900                                            0                                                                                                                                                                                                                        
03710000000001529462431   001400403000035118095895600000000338655922019110500000000009900                                            0                                                                                                                                                                                                                        
03710000000001529462431   001400403000035118095895600000000338344992019110700000000019900                                            0                                                                                                                                                                                                                        
03710000000001529462431   001400403000035118095895600000000338666682019110700000000009900                                            0                                                                                                                                                                                                                        
03710000000001529462431   001400403000035118095895600000000338677762019110800000000009900                                            0                                                                                                                                                                                                                        
03710000000001529462431   001400403000035118095895600000000340480572019111900000000009900                                            0                                                                                                                                                                                                                        
03710000000001529462431   001400403000035118095895600000000338818802019111100000000008900                                            0                                                                                                                                                                                                                        
03710000000001529462431   001400403000035118095895600000000338345262019110700000000009900                                            0                                                                                                                                                                                                                        
03710000000001529462431   001400403000035118095895600000000340405422019111500000000009900                                            0                                                                                                                                                                                                                        
03710000000001529462431   001400403000035118095895600000000338420012019111100000000019900                                            0                                                                                                                                                                                                                        
03710000000001529462431   001400403000035118095895600000000338378022019110800000000019900                                            0                                                                                                                                                                                                                        
03710000000001529454464   001400403000035118565872100000000337942542019110500000000079900                                            0                                                                                                                                                                                                                        
03710000000001529482649   001400403000035118451620600000000339220672019110500000000045000                                            0                                                                                                                                                                                                                        
03710000000001529482649   001400403000035118451620600000000338628582019110500000000035000                                            0                                                                                                                                                                                                                        
03710000000001529482649   001400403000035118451620600000000338625422019110700000000030000                                            0                                                                                                                                                                                                                        
03710000000001529460967   001404207000036901503223730000000340796662019111500000000090000                                            0                                                                                                                                                                                                                        
03710000000001529589892   002003021000110000117267260000000340987752019111500000000011000                                            0                                                                                                                                                                                                                        
03710000000001529438745   002004086000110000115558760000000341194642019112100000000010000                                            0                                                                                                                                                                                                                        
03710000000001529430842   002004086000110000116964120000000338577462019111500000000018500                                            0                                                                                                                                                                                                                        
03710000000001529430842   002004086000110000116964120000000338577592019111500000000073000                                            0                                                                                                                                                                                                                        
03710000000001529430842   002004086000110000116964120000000340962742019111500000000015000                                            0                                                                                                                                                                                                                        
03710000000001529435592   002009319000110000120124260000000341189112019112100000000100000                                            0                                                                                                                                                                                                                        
03710000000001529651319   002700632000200353261200150000000336722742019102500000000015000                                            0                                                                                                                                                                                                                        
03710000000001529651319   002700632000200353261200150000000337071412019102800000000010000                                            0                                                                                                                                                                                                                        
03710000000001529652204   002702645000200243158900130000000337666002019103000000000010000                                            0                                                                                                                                                                                                                        
03710000000001529652204   002702645000200243158900130000000336729952019102500000000015000                                            0                                                                                                                                                                                                                        
03710000000001529652204   002702645000200243158900130000000337458472019102900000000010000                                            0                                                                                                                                                                                                                        
03710000000001529453603   004501622000018000047256630000000340796372019111500000000060000                                            0                                                                                                                                                                                                                        
03710000000001529454009   004501622000018000662863350000000340656072019111300000000025000                                            0                                                                                                                                                                                                                        
03710000000001529466886   009400993000780029228300100000000336188002019102300000000010000                                            0                                                                                                                                                                                                                        
03710000000001529466886   009400993000780029228300100000000341196212019112100000000010000                                            0                                                                                                                                                                                                                        
03710000000001529466886   009400993000780029228300100000000336313022019102400000000010000                                            0                                                                                                                                                                                                                        
03710000000001529550442   019102366000551236015971490000000340790772019111400000000110000                                            0                                                                                                                                                                                                                        
03710000000001529486203   019102403000551240014661850000000341115212019112000000000015000                                            0                                                                                                                                                                                                                        
03710000000001526181844   033005025000250208097500170000000337164062019110500000000040000                                            0                                                                                                                                                                                                                        
03710000000001529611165   038600034000050000481718840000000341123742019112000000000015000                                            0                                                                                                                                                                                                                        
03710000000001529387488   038900752000010052555465000000000341100122019112000000000015000                                            0                                                                                                                                                                                                                        
03710000000001529570620   038900820000400052700534680000000340603272019111300000000025000                                            0                                                                                                                                                                                                                        
03710000000001529570620   038900820000400052700534680000000340484052019111200000000015000                                            0                                                                                                                                                                                                                        
03710000000001529475251   038901328000400052536965180000000340612272019111300000000025000                                            0                                                                                                                                                                                                                        
99998496D20191126VBANCO  000000012818000000051                                                                                                                                                                                                                                                                                                                
